:020000040800F2
:1000000018080020450100084D0100084F010008B4
:1000100051010008530100085501000800000000CC
:100020000000000000000000000000005701000870
:1000300059010008000000005B0100085D01000894
:100040005F0100085F0100085F0100085F01000810
:100050005F0100085F0100085F0100085F01000800
:100060005F0100085F0100085F0100085F010008F0
:100070005F0100085F0100085F0100085F010008E0
:100080005F0100085F0100085F0100085F010008D0
:100090005F0100085F0100085F010008DD01000842
:1000A0005F010008550C00085F0100085F010008AF
:1000B000790C00085F0100085F0100085F0100087B
:1000C0005F0100085F0100085F0100085F01000890
:1000D0005F0100085F0100085F0100085F01000880
:1000E0005F0100085F0100085F0100085F01000870
:1000F0009D0C00085F0100085F0100085F01000817
:100100005F0100085F0100085F0100085F0100084F
:100110005F0100085F0100085F0100085F0100083F
:100120005F0100085F0100085F0100085F0100082F
:10013000DFF80CD000F040F80048004755130008E5
:10014000180800200648804706480047FEE7FEE7FB
:10015000FEE7FEE7FEE7FEE7FEE7FEE7FEE7FEE777
:10016000F50B0008310100080649074A08685043AA
:1001700043F23902104408604008704701490860A2
:1001800070470000500000206D4EC64130B50B4650
:10019000014600202022012409E021FA02F59D42B7
:1001A00005D303FA02F5491B04FA02F52844151E8B
:1001B000A2F10102F1DC30BD064C074D06E0E0681B
:1001C00040F0010394E8070098471034AC42F6D39E
:1001D000FFF7B2FF707E0008907E000810B5074858
:1001E000006800F4807038B101F06AFA03480068D2
:1001F00040F480700149086010BD00001404014003
:1002000010B5F0234FF4A0720021084600F028FC3E
:10021000222001F087FD00BF00BF002404E0064853
:10022000008801F087FD641CB4F5963FF7D300BF4A
:1002300000BF002010BD0000320000202DE9F04773
:1002400081468A4614461E46089F07FB04F0642137
:10025000B0FBF1F7334622465146484600F000FC19
:10026000222001F05FFD00BF00BF4FF0000811E049
:1002700000250BE0BD4204D30A48008801F05AFD76
:1002800003E00948008801F055FD6D1CA542F1D33B
:1002900008F10108B045EBD300BF00BF0020BDE866
:1002A000F087000032000020300000202DE9F05FD0
:1002B0008046894614461F46DDF828A0D3463B46B3
:1002C00022464946404600F0CBFB222001F02AFDA1
:1002D00000BF00BF781E00FB04F50AE0002605E021
:1002E000A9193BF8110001F025FD761CA642F7D3B1
:1002F0002D1B002DF2DA00BF00BF0020BDE8F09FEB
:100300002DE9F04781468A4616462E48006818B9FE
:100310004FF0FF30BDE8F0872A4800684068361A81
:10032000284909680988C81DC11700EB51714FEAB7
:10033000E10824480068C16806FB08F0214A1268F9
:10034000528800FB02151F48006843881D4800685A
:1003500002885146484600F083FB222001F0E2FC6F
:1003600000BF00BF002723E000241AE0297804F032
:100370000702114101F0010111B11349098801E09F
:1003800012490988084601F0D5FC04F00700072847
:1003900006D10C4800680088401EA04200D06D1CA9
:1003A000641C084800680088A042DFD86D1C7F1CD0
:1003B000044800684088B842D6D800BF00BF00207B
:1003C000A8E70000340000203000002032000020A8
:1003D00070B505460E46144609E014F8012B314667
:1003E0002846FFF78DFF0448006800880544207800
:1003F0000028F2D170BD00003400002070B5FE4826
:10040000806940F2ED110843FB498861FB480068B0
:1004100000F0FF2444F0BB10F8490860081D006894
:10042000F74900EA0104F7482043F449091D086030
:10043000F548006820F0704444F03040F24908600C
:100440004FF0BB30091D0860F048006820F00F0431
:1004500044F00B00ED490860ED484068ED4900EAC2
:100460000104ED482043EA494860EC480068EB4944
:100470000860EA481038006820F00F0444F00300D8
:10048000E64910390860DC48406940F48070DA4978
:10049000486140F205404107C86141F2112088617E
:1004A000322000F067FD0026304601F03BFC00F0F2
:1004B000ABFF0546472D7DD10120D94908700021A9
:1004C000EA2001F03BFC2021EB2001F037FC0C215D
:1004D000EC2001F033FCC721ED2001F02FFC382186
:1004E000E82001F02BFC1021E92001F027FC01217C
:1004F000F12001F023FC1021F22001F01FFC01216A
:10050000402001F01BFC0021412001F017FC0021DC
:10051000422001F013FC1021432001F00FFC0E21BA
:10052000442001F00BFC2421452001F007FC0421AC
:10053000462001F003FC5021472001F0FFFB02217F
:10054000482001F0FBFB1321492001F0F7FB1921A2
:100550004A2001F0F3FB19214B2001F0EFFB16219B
:100560004C2001F0EBFB1B21502001F0E7FB312177
:10057000512001F0E3FB2F21522001F0DFFB3F214E
:10058000532001F0DBFB3F21542001F0D7FB3E213B
:10059000552001F0D3FB2F21562001F0CFFB7B210A
:1005A000572001F0CBFB0921582001F0C7FB0621A1
:1005B000592000E089E001F0C1FB06215A2001F03A
:1005C000BDFB0C215B2001F0B9FB1D215C2001F07B
:1005D000B5FBCC215D2001F0B1FB1B21084601F0E9
:1005E000ADFB01211A2001F0A9FB2F21242001F0ED
:1005F000A5FB5721252001F0A1FB8821232001F034
:100600009DFB3621182001F099FB0121192001F0F2
:1006100095FB0021012001F091FB88211F2001F0B2
:100620008DFBC82000F0A6FC82211F2001F086FB74
:10063000322000F09FFC92211F2001F07FFB32202E
:1006400000F098FCD2211F2001F078FB322000F04E
:1006500091FC5521172001F071FB0021084601F0A3
:100660006DFB11212F2001F069FB0021312001F0E9
:1006700065FB0021322001F061FB3821282001F0C8
:100680005DFBC82000F076FC3C21282001F056FBE1
:10069000A821162001F052FB00210E2001F04EFB94
:1006A00000210F2001F04AFB0121102001F046FB40
:1006B0004021112001F042FB0021122001F03EFBFD
:1006C0000021132001F03AFBA9E1002054490870F1
:1006D0004FF48071012001F031FB4FF4E061022002
:1006E00001F02CFB0021042001F028FB40F207213F
:1006F000082001F023FB0021092001F01FFB00214D
:100700000A2001F01BFB00210C2001F017FB002147
:100710000D2001F013FB00210F2001F00FFB002141
:10072000102001F00BFB0021112001F007FB00213C
:10073000122001F003FB0021132001F0FFFAC82072
:1007400000F018FC41F2B021102001F0F7FA072167
:10075000112001F0F3FA322000F00CFC40F2BD1140
:10076000122001F0EBFA322000F004FC4FF4A0510B
:10077000132001F0E3FA0E21292001F0DFFA3220E4
:1007800000F0F8FB0021202001F0D8FA0021212000
:1007900001F0D4FAA5F5A840083838B1A0F57C508E
:1007A000183800287DD005287CD167E040F60D314F
:1007B000302001F0C3FA41F62311312001F0BEFAD6
:1007C00041F62641322001F0B9FA42F21C61332091
:1007D00001F0B4FA42F21941342001F0AFFA40F6C8
:1007E0000B51352001F0AAFA41F20601362001F042
:1007F000A5FA4FF4C26115E0001002400014014058
:1008000000F0FF00BB0B00BB00180140001C0140C2
:1008100000200140FFF0F0FF000B0B001408014026
:1008200038000020372001F089FA40F206713820A4
:1008300001F084FA4FF44171392001F07FFA40F65B
:1008400005613A2001F07AFA40F601613B2001F09F
:1008500075FA4FF487713C2001F070FA40F20E51A6
:100860003D2001F06BFA40F203413E2001F066FAB0
:1008700040F207613F2001F061FA61E00021302081
:1008800001F05CFA40F20761312001F057FA40F2C2
:100890000531322001F052FA0021352001F04EFAE4
:1008A00001E01DE01BE041F20461362001F046FA50
:1008B0004FF40171372001F041FA0121382001F095
:1008C0003DFA40F20771392001F038FA00213C204E
:1008D00001F034FA0F213D2001F030FA30E000BF82
:1008E0000621302001F02AFA40F20111312001F0F6
:1008F00025FA0321322001F021FA4FF483713520CB
:1009000001F01CFA40F60231362001F017FA40F2ED
:100910000231372001F012FA40F20771382001F05D
:100920000DFA0721392001F009FA4FF4C0613C208B
:1009300001F004FA40F20B213D2001F0FFF900BF65
:1009400000BF0021502001F0F9F9EF21512001F002
:10095000F5F90021522001F0F1F940F23F11532046
:1009600001F0ECF9A5F5A840083830B1A0F57C50AD
:10097000183850B1052807D100E000BF4FF41C51D2
:10098000602001F0DBF906E000BF4FF42741602052
:1009900001F0D4F900BF00BF0121612001F0CEF9C0
:1009A00000216A2001F0CAF90021802001F0C6F977
:1009B0000021812001F0C2F90021822001F0BEF95E
:1009C0000021832001F0BAF90021842001F0B6F95A
:1009D0000021852001F0B2F91021902001F0AEF93C
:1009E0000021922001F0AAF90321932001F0A6F939
:1009F0004FF48871952001F0A1F90021972001F0B2
:100A00009DF90021982001F099F941F23801032065
:100A100001F094F940F23711072001F08FF94FF4FB
:100A2000807002490860002070BD0000100801407D
:100A30000146024A11800020704700003200002069
:100A40000146024801600020704700003400002089
:100A50000146024A1180002070470000300000204B
:100A60002DE9F04704460D4616461F4626480078F5
:100A700060B3A019A0F10108E819A0F10109C4F3BD
:100A80000F21022001F05AF9E1B2032001F056F9DA
:100A9000C8F30F21042001F051F908F0FF010520EF
:100AA00001F04CF9C5F30F21062001F047F9E9B236
:100AB000072001F043F9C9F30F21082001F03EF9A6
:100AC00009F0FF01092001F039F91BE0A9B250201B
:100AD00001F034F9E819401E81B2512001F02EF9DD
:100AE000A1B2522001F02AF9A019401E81B2532070
:100AF00001F024F9A9B2202001F020F9A1B22120AF
:100B000001F01CF9BDE8F0873800002010B500F0B6
:100B100001F810BD0CB5002001900090334800682A
:100B200040F480303149086000BF3048006800F46C
:100B3000003000900198401C0190009818B901986D
:100B4000B0F5A06FF1D12948006800F4003010B171
:100B50000120009001E0002000900098012843D17E
:100B60002348006840F010002149086008460068EA
:100B700020F0030008600846006840F002000860AA
:100B80001A48406819494860084640684860084665
:100B9000406840F4806048600846406820F47C105B
:100BA00048600846406840F4E8104860084600681D
:100BB00040F08070086000BF0C48006800F00070D2
:100BC0000028F9D00948406820F003000749486030
:100BD0000846406840F00200486000BF0348406893
:100BE00000F00C000828F9D10CBD000000100240F4
:100BF0000020024010B51348006840F00100114980
:100C0000086008464068104908400E494860084698
:100C100000680E4908400B4908600846006820F447
:100C2000802008600846406820F4FE0048604FF4C9
:100C30001F008860FFF76AFF4FF0006004490860FA
:100C400010BD0000001002400000FFF8FFFFF6FE9C
:100C500008ED00E010B50748008800F0010038B149
:100C600001F01EF80348008820F0010001490880C7
:100C700010BD0000102C014010B54FF08040008ADC
:100C800000F0010048B100F0D5FF4FF08040008A2D
:100C900020F001004FF08041088210BD10B50748D8
:100CA000008800F0010038B100F0AAFD0348008878
:100CB00020F001000149088010BD000010340140FF
:100CC0000FB4084B10B504A902AA039800F01CF851
:100CD000044602A9002000F0C1F8204610BC5DF8CF
:100CE00014FB00005D0E000802E008C8121F08C1D6
:100CF000002AFAD170477047002001E001C1121F9D
:100D0000002AFBD1704700002DE9FF4F89B09B46B8
:100D10000446002506E025280BD05A460B9990473B
:100D2000641C6D1C20780028F5D10DB02846BDE864
:100D3000F08F0027B8460122474900E0074314F826
:100D4000013F203B02FA03F00842F7D120782E2819
:100D500019D114F8010F47F004072A280ED06FF0BC
:100D60002F022078A0F1300109290CD808EB880166
:100D700002EB410100EB0108641CF2E70A98641CD5
:100D800050F8048B0A9020780028CED0642808D030
:100D9000692806D075281ED05A460B9990476D1CBD
:100DA00058E00A994FF00A0901C90A91002802DAAD
:100DB00040422D2102E0390504D52B218DF8201069
:100DC000012103E0F90704D02021F7E78A4608AEA5
:100DD0000DE00021FAE70A994FF00A0901C90A91CA
:100DE000F7E74946FFF7D2F9303106F8011D002830
:100DF000F7D1ADEB060000F12009780701D44FF0E0
:100E00000108C84502DDA8EB090000E0002080468B
:100E1000002706E008A85A46C05D0B9990476D1C54
:100E20007F1C5745F6DB04E030205A460B9990476B
:100E30006D1CB8F10001A8F10108F5DC05E016F819
:100E4000010B5A460B9990476D1CB9F10001A9F1AD
:100E50000109F4DC641C65E7092801000A68531CD9
:100E60000B601070704710B50020FFF7E1FDFFF731
:100E7000C7F910BDF8B504460D4616461F460020BA
:100E8000FFF7E6FD4FF480603B463246294600906E
:100E90002046FFF7D3F9F8BD00B51048806940F44B
:100EA00000600E49886103200D4908804FF62050EC
:100EB000091D08800A481C38008840F001000849D4
:100EC0001C39088000F07EFC0648006840F0007085
:100ED0004FF0E021C1F8000100BD00000010024009
:100EE000282C014000E100E000B50C48C06940F04A
:100EF00001000A49C86103208904088547F690600B
:100F000088858006808940F00100888100F064FCBB
:100F10004FF080500249086000BD00000010024000
:100F200000E100E000B51048806940F400500E492F
:100F30008861002000F09CFA48F6A0400B49088028
:100F40000A482038008840F001000849203908800C
:100F500000F04CFC0648006840F480504FF0E0215F
:100F6000C1F8040100BD0000001002402C34014013
:100F700004E100E00949096842F21072B1FBF2F1A4
:100F8000484305E000BF00BF00BF00BF00BF00BF77
:100F9000011EA0F10100F5D1704700003C000020C7
:100FA00000B585B0FFF75FFF00F094F84FF478408C
:100FB000FFF74EFD0DA264210846FFF709FA4FF630
:100FC000FF70FFF745FD0C480CA102686846FFF76B
:100FD00077FE6A468C211420FFF7FAF900BF00F073
:100FE00099FE0028FBD005B000BD0000506572647A
:100FF000752021212100000010000020566F74721E
:10100000652073636F7265203A202564000000003C
:1010100010B500F05FF84FF47840FFF719FD05A216
:1010200064210846FFF7D4F900BF00F073FE0028E2
:10103000FBD010BD4741474E452021212100000033
:1010400000B585B00020FFF7F3FC4FF6E070FFF726
:10105000FFFC1448FFF7F4FC1348006806280BDC7B
:10106000114812A102686846FFF72AFE6A4600216D
:101070000846FFF7ADF912E00B480068072805D1D4
:101080000DA200210846FFF7A3F908E00648006812
:10109000082804D10AA200210846FFF799F905B0F3
:1010A00000BD0000507E00080C0000204E697665EF
:1010B0006175202564000000426F7373000000001A
:1010C000426F7373202D204C65207265746F7572AA
:1010D0002E2E000008B50020FFF7AAFC4FF6FF7087
:1010E000FFF7B6FC1048FFF7ABFC10A2002103206D
:1010F000FFF76EF9124812231A4628210090642047
:10110000FFF7D4F80F4812231822282100909120CD
:10111000FFF7CCF80C4812231A2228210090BE2099
:10112000FFF7C4F808BD0000607E000820202053AF
:10113000504143452D444546454E4445520000002C
:10114000502C0008203800083046000810B504462E
:10115000FFF789FEFFF7BEFF94B94FF47840FFF721
:1011600077FC12A264210846FFF732F94FF6FF70B0
:10117000FFF76EFC0FA28C216420FFF729F913E022
:10118000012C11D14FF6FF70FFF762FC07A264211A
:101190000846FFF71DF94FF47840FFF759FC05A208
:1011A0008C216420FFF714F910BD00004A6F7565AB
:1011B0007200000051756974746572001CB50020DE
:1011C000FFF736FC1F20FFF743FC0748FFF738FC0A
:1011D000064807A102686846FFF772FD6A460021CB
:1011E0008220FFF7F5F81CBD607E0008100000208B
:1011F0002564000070B504460D46FEF7B5FF291BB7
:1012000090FBF1F201FB1200204470BD0148008800
:10121000704700002404004010B5FFF7EFF8FFF717
:1012200022FE10BD2149496821F0706040F08061C4
:101230001E4A51601146496821F4700040F4800153
:1012400051601146496821F0704040F08041516082
:101250001749096821F4704040F48041144A116034
:101260001249496821F00F0040F004010F4A516013
:101270001146096821F0704040F0804111600D492D
:10128000896941F020010B4A91611146896941F455
:10129000807191611146896941F0010191611146A6
:1012A000896941F00201916170470000002001400E
:1012B000001401400010024010B500F009F810BD04
:1012C00000B5FFF7E9FDFFF70FFEFFF72BFE00BDAE
:1012D0000A48C06940F002000849C8610020084976
:1012E00008804FF6FF70091D0880054828380088DF
:1012F00040F0010002492839088070470010024080
:101300002804004002480068012121EAD00070470B
:101310000814014002488068012121EA903070479A
:101320000020014002488068012121EA50307047C6
:101330000020014002488068012121EAD010704756
:101340000020014002488068012121EAD030704726
:1013500000200140FFF760FFFFF764FFFFF7B0FFD9
:10136000FFF7AAFF44E00020FFF7F0FE00BF00F007
:101370004FF80028FBD000F073F800201D490860EA
:101380001D49086001201D49086000201C490860B3
:101390001CE000F087F800F0D3F900BF16480068A1
:1013A00018B9184800680028F8D000F001FA15486C
:1013B000006820B111480068401C104908600F48BF
:1013C0000068082802DD01200A4908600A48006810
:1013D00018B9084800680028DBD00748006810B139
:1013E000FFF7DEFD04E00348006808B1FFF710FED8
:1013F000B9E7000004000020000000200C000020DD
:1014000010000020080000204FF0D84040887047AE
:1014100010B5FFF797FF50B110480078012806D1AA
:1014200000200E49087008460078FFF78FFEFFF78E
:1014300069FF48B10948007830B9012007490870B0
:1014400008460078FFF782FEFFF774FF20B10348DB
:10145000007808B9012010BD0020FCE7140000202E
:1014600010B5FFF7D3FE0446FEF788FE10BD00005E
:1014700018B91F210A4A118010E0012803D119214F
:10148000074A11800AE0022803D11321044A11807F
:1014900004E0032802D10D21014A118070470000A9
:1014A0002834014010B54FF490710020FFF7A2FEE0
:1014B0007C49086000207C4908607C4908607C49C0
:1014C00008607C480068062874DC1E207A490860A1
:1014D00078480068072817D2DFE800F016040506F0
:1014E0000A0E120000BF00BF0020FFF7C1FF0BE093
:1014F0000120FFF7BDFF07E00220FFF7B9FF03E07F
:101500000320FFF7B5FF00BF00BF00249EE00120CD
:101510006A4901EB441108600020684901EB44115D
:1015200008710A2094FBF0F100FB1140C0EB0010A1
:10153000012101EB4000614901EB441188600A2C54
:1015400005DA1E205D4901EB4411C8600CE0142C43
:1015500005DA5020594901EB4411C86004E08220AB
:10156000564901EB4411C86052480068072830D240
:10157000DFE800F02F040A101617180000204F496A
:1015800001EB4411087624E001204C4901EB4411A1
:1015900008761EE00220494901EB4411087618E064
:1015A00000BF00BF0A2C06DA0020444901EB4411B9
:1015B00008760DE050E0142C05DA01203F4901EBDC
:1015C0004411087604E002203C4901EB44110876FE
:1015D00000BF00BF394800EB4410007E20B1012855
:1015E00011D002282FD11EE01220344901EB441102
:1015F0000861324901EB4411486101202F4901EB98
:101600004411C86120E018202C4901EB4411086105
:1016100012202A4901EB441148610220274901EBBD
:101620004411C86110E01A20244901EB44110861FB
:101630001220224901EB4411486103201F4901EBAC
:101640004411C86100E000BF00BF641C1A48006874
:101650008442FFF65CAF23E001201749086015487B
:101660000068072802D0082808D103E00020FFF70F
:10167000FFFE03E00320FFF7FBFE00BF00BF0120D9
:101680000E49086000200871012088601E20C86093
:10169000032008761420C8612020486122200861B8
:1016A00010BD0000180000201C00002008000020D1
:1016B0002C0000200C0000202800002054000020F6
:1016C0000748006850B901200549086005480068CE
:1016D000103005490860C8200449086070470000C0
:1016E0001C00002018000020200000202400002002
:1016F0001049096841F400014FF0E022C2F80011DE
:101700000D4909694FF6F07201EA020040F0060146
:10171000094A11610949096841F48071074A116059
:1017200006490831096841F48071044A08321160A1
:101730007047000000E100E00000014000040140AB
:1017400010B5FFF790FBFFF77BFCFFF737FD00F0CC
:1017500007F800F00FF800F017F8FFF7C9FF10BD09
:101760000348008840F001000149088070470000EC
:10177000002C01404FF08040008840F001004FF005
:1017800080410880704700000348008840F0010055
:101790000149088070470000003401400348006898
:1017A00020F4807001490860704700000004014087
:1017B00010B500F007F800F00FF800F017F8FFF789
:1017C000EDFF10BD0348008820F0010001490880AA
:1017D00070470000002C01404FF08040008820F04E
:1017E00001004FF0804108807047000003480088E6
:1017F00020F00100014908807047000000340140DA
:1018000038B50024EFE1FB4800EB441000790028D4
:101810007DD1F84800EB4410806800280BDDF548C6
:1018200000EB44108068F34901EB44110969C1F5EC
:10183000A071884224DBEF4D05EB44156B69ED4D3B
:1018400005EB44152A69EB4D05EB4415E968E94DB4
:1018500005EB4415A868FFF70DFBE64800EB4410C4
:1018600000684042E34901EB44110860E14800EBA5
:101870004410C0681430DF4901EB4411C8602AE00D
:10188000DC4800EB4410006801280FD1D94A02EB74
:1018900044125369D74A02EB4412D168D54A02EB8D
:1018A000441290680122FFF7E5FA14E0D14A02EBF6
:1018B00044129268CF4D05EB44152D692A44501E01
:1018C000CC4A02EB44125369CA4A02EB4412D16873
:1018D0000122FFF7CFFAC74800EB44108068C549E2
:1018E00001EB441109680844C24901EB44118860C6
:1018F000C148006800287DD0BE4800EB44108068D5
:10190000401EBE490968884274DCBA4800E069E1BB
:1019100000EB44108068B74901EB441109690844A1
:10192000401CB649096888427EDBB24800EB44108F
:10193000C068B04901EB441149690844B0490968DD
:10194000884271DBAB4800EB4410C068AC490968C1
:10195000884269DCA74800EB4410C069401EA549D5
:1019600001EB4411C861A34800EB4410007E03283A
:1019700004D1A44800680A30A24908609D4800EBE1
:101980004410C06970BB01209A4901EB44110871F1
:10199000984800EB4410007E30B101280AD002289C
:1019A0000ED0032818D111E096480068401D9549D3
:1019B000086011E0934800680A30924908600BE023
:1019C0009048006814308F49086005E08D48006831
:1019D00032308C49086000BF00BF8B480068401C53
:1019E00089490860FFF7EAFB0020834908600A2361
:1019F000022200E018E08248016880480068FFF792
:101A000039FA7C4D05EB44156B697A4D05EB4415AD
:101A10002A69784D05EB4415E968764D05EB4415C8
:101A2000A868FFF727FAC6E0724800EB4410007E72
:101A3000A0B976486F4D05EB441500906B696D4D6C
:101A400005EB44152A696B4D05EB4415E968694DB2
:101A500005EB4415A868FEF729FCACE0654800EBEF
:101A60004410007E012835D1624800EB4410C06963
:101A7000022814D166485F4D05EB441500906B6950
:101A80005C4D05EB44152A695A4D05EB4415E96890
:101A9000584D05EB4415A868FEF708FC8BE0554847
:101AA00000EB4410C069012813D15A48514D05EB91
:101AB000441500906B694F4D05EB44152A694D4D57
:101AC00005EB4415E9684B4D05EB4415A868FEF796
:101AD000EDFB70E0474800EB4410007E022850D137
:101AE000444800EB4410C069032814D14A48414DD2
:101AF00005EB441500906B693E4D05EB44152A69D2
:101B00003C4D05EB4415E9683A4D05EB4415A868D2
:101B1000FEF7CCFB4FE0374800EB4410C0690228C9
:101B200014D13E48334D05EB441500906B69314D9F
:101B300005EB44152A692F4D05EB4415E9682D4D39
:101B400005EB4415A868FEF7B1FB34E0294800EB2B
:101B50004410C06901282ED13148264D05EB4415AB
:101B600000906B69234D05EB44152A69214D05EB67
:101B70004415E9681F4D05EB4415A868FEF796FB70
:101B800019E01C4800EB4410007E032813D12548BF
:101B9000184D05EB441500906B69164D05EB441587
:101BA0002A69144D05EB4415E968124D05EB4415FF
:101BB000A868FEF77BFB0F4800EB4410C0680D4996
:101BC00001EB441149690844D22802DB012016497F
:101BD00008600D48006815490968884202D1012053
:101BE00013490860641C114800688442FFF60BAE7C
:101BF00038BD0000540000201C0000202000002000
:101C000024000020100000202C000020502C000890
:101C10006031000820380008E03E00083046000827
:101C2000804D0008D054000800000020280000204B
:101C30000800002008B51748006848B31648006837
:101C400000F109010123022214480068FFF712F98C
:101C500011480068401E104908604FF47840FEF7B4
:101C6000F7FE4FF480600A23022200900A480168C0
:101C70000A480068FEF7E2FA074800680A300028C0
:101C800006DA002003490860FFF7DAF9FFF796FA51
:101C900008BD00001C0000202400002020000020BF
:101CA00008B5FFF737FB90B11848006800280EDD33
:101CB0001649096801F11F001E230122D221FFF7F6
:101CC000D9F812480068401E1049086014E0FFF778
:101CD00029FB88B10D4800682030B0F5A07F0BDAF1
:101CE0001E230122D22109480068FFF7C3F80748E4
:101CF0000068401C0549086005481E232022D221A7
:101D0000009002480068FEF7D1FA08BD18000020D4
:101D1000501D000802488068012121EA1020704708
:101D2000002001404FF0D841088070474FF0D84163
:101D3000488070474FF0D8414880704770B50546DD
:101D40000C462846FFF7EEFF2046FFF7EFFF70BD79
:101D50000000E0FFE0FFE0FFE0FFE0FFE0FFE0FF6A
:101D6000E0FFE0FFE0FFE0FFE0FFE0FFE0FFE0FF7B
:101D7000E0FFE0FFE0FFE0FFE0FFE0FFE0FFE0FF6B
:101D8000E0FFE0FFE0FFE0FFE0FFE0FFE0FF00003A
:101D90000000E0FFE0FFE0FFE0FFE0FFE0FFE0FF2A
:101DA000E0FFE0FFE0FFE0FFE0FFE0FFE0FFE0FF3B
:101DB000E0FFE0FFE0FFE0FFE0FFE0FFE0FFE0FF2B
:101DC000E0FFE0FFE0FFE0FFE0FFE0FFE0FF0000FA
:101DD0000000E0FFE0FFE0FFE0FFE0FFE0FFE0FFEA
:101DE000E0FFE0FFE0FFE0FFE0FFE0FFE0FFE0FFFB
:101DF000E0FFE0FFE0FFE0FFE0FFE0FFE0FFE0FFEB
:101E0000E0FFE0FFE0FFE0FFE0FFE0FFE0FF0000B9
:101E10000000E0FFE0FFE0FFE0FFE0FFE0FFE0FFA9
:101E2000E0FFE0FFE0FFE0FFE0FFE0FFE0FFE0FFBA
:101E3000E0FFE0FFE0FFE0FFE0FFE0FFE0FFE0FFAA
:101E4000E0FFE0FFE0FFE0FFE0FFE0FFE0FF000079
:101E50000000E0FFE0FFE0FFE0FFE0FFE0FFE0FF69
:101E6000E0FFE0FFE0FFE0FFE0FFE0FFE0FFE0FF7A
:101E7000E0FFE0FFE0FFE0FFE0FFE0FFE0FFE0FF6A
:101E8000E0FFE0FFE0FFE0FFE0FFE0FFE0FF000039
:101E90000000E0FFE0FF000000000000E0FFE0FFC6
:101EA000E0FFE0FFE0FFE0FFE0FFE0FFE0FFE0FF3A
:101EB000E0FFE0FFE0FFE0FFE0FFE0FFE0FFE0FF2A
:101EC000E0FFE0FF000000000000E0FFE0FF000096
:101ED0000000E0FFE0FF0000000000000000E0FF65
:101EE000E0FFE0FFE0FFE0FFE0FFE0FFE0FFE0FFFA
:101EF000E0FFE0FFE0FFE0FFE0FFE0FFE0FFE0FFEA
:101F0000E0FF0000000000000000E0FFE0FF000034
:101F10000000E0FFE0FF0000000000000000000003
:101F2000E0FFE0FFE0FFE0FFE0FFE0FFE0FFE0FFB9
:101F3000E0FFE0FFE0FFE0FFE0FFE0FFE0FFE0FFA9
:101F400000000000000000000000E0FFE0FF0000D3
:101F50000000E0FFE0FF00000000000000000000C3
:101F60000000E0FFE0FFE0FFE0FFE0FFE0FFE0FF58
:101F7000E0FFE0FFE0FFE0FFE0FFE0FFE0FF000048
:101F800000000000000000000000E0FFE0FF000093
:101F900000000000E0FF0000000000000000000062
:101FA00000000000E0FFE0FFE0FFE0FFE0FFE0FFF7
:101FB000E0FFE0FFE0FFE0FFE0FFE0FF00000000E7
:101FC00000000000000000000000E0FF0000000032
:101FD0000000000000000000000000000000000001
:101FE000000000000000E0FFE0FFE0FFE0FFE0FF96
:101FF000E0FFE0FFE0FFE0FFE0FF00000000000086
:1020000000000000000000000000000000000000D0
:1020100000000000000000000000000000000000C0
:102020000000000000000000E0FFE0FFE0FFE0FF34
:10203000E0FFE0FFE0FFE0FF000000000000000024
:102040000000000000000000000000000000000090
:102050000000000000000000000000000000000080
:1020600000000000000000000000E0FFE0FFE0FFD3
:10207000E0FFE0FFE0FF00000000000000000000C3
:102080000000000000000000000000000000000050
:102090000000000000000000000000000000000040
:1020A000000000000000000000000000E0FFE0FF72
:1020B000E0FFE0FF00000000000000000000000062
:1020C0000000000000000000000000000000000010
:1020D0000000000000000000000000000000000000
:1020E0000000000000000000000000000000E0FF11
:1020F000E0FF000000000000000000000000000001
:1021000000000000000000000000000000000000CF
:1021100000000000000000000000000000000000BF
:102120000000000000000000000000000000E0FFD0
:10213000E0FF0000000000000000000000000000C0
:10214000000000000000000000000000000000008F
:10215000000000000000000000000000000000007F
:102160000000000000000000000000000000E0FF90
:10217000E0FF000000000000000000000000000080
:10218000000000000000000000000000000000004F
:10219000000000000000000000000000000000003F
:1021A0000000000000000000000000000000E0FF50
:1021B000E0FF000000000000000000000000000040
:1021C000000000000000000000000000000000000F
:1021D00000000000000000000000000000000000FF
:1021E0000000000000000000000000000000E0FF10
:1021F000E0FF000000000000000000000000000000
:1022000000000000000000000000000000000000CE
:1022100000000000000000000000000000000000BE
:102220000000000000000000000000000000E0FFCF
:10223000E0FF0000000000000000000000000000BF
:10224000000000000000000000000000000000008E
:10225000000000000000000000000000000000007E
:102260000000000000000000000000000000E0FF8F
:10227000E0FF00000000000000000000000000007F
:10228000000000000000000000000000000000004E
:10229000000000000000000000000000000000003E
:1022A0000000000000000000000000000000E0FF4F
:1022B000E0FF00000000000000000000000000003F
:1022C000000000000000000000000000000000000E
:1022D00000000000000000000000000000000000FE
:1022E0000000000000000000000000000000E0FF0F
:1022F000E0FF0000000000000000000000000000FF
:1023000000000000000000000000000000000000CD
:1023100000000000000000000000000000000000BD
:102320000000000000000000000000000000E0FFCE
:10233000E0FF0000000000000000000000000000BE
:10234000000000000000000000000000000000008D
:10235000000000000000000000000000000000007D
:10236000000000000000000000000000000000006D
:10237000000000000000000000000000000000005D
:102C7000000000000000FFFFFFFF00000000FFFF5A
:102C8000FFFF0000000000000000FFFFFFFF00004A
:102C90000000FFFFFFFF00000000FFFFFFFF00003C
:102CA0000000FFFFFFFF0000000000000000FFFF2A
:102CB000FFFF00000000FFFFFFFF0000000000001A
:102CC0000000FFFFFFFF00000000FFFFFFFFFFFF0E
:102CD000FFFF00000000FFFFFFFF000000000000FA
:102CE000000000000000FFFFFFFF00000000FFFFEA
:102CF000FFFFFFFFFFFF00000000FFFFFFFF0000DE
:102D00000000000000000000000000000000FFFFC5
:102D1000FFFF0000000000000000FFFFFFFF0000B9
:102D200000000000000000000000000000000000A3
:102D30000000FFFFFFFF0000000000000000FFFF99
:102D4000FFFF000000000000000000000000FFFF87
:102D5000FFFFFFFFFFFFFFFFFFFFFFFFFFFFFFFF83
:102D6000FFFFFFFFFFFFFFFFFFFFFFFFFFFF000071
:102D70000000FFFFFFFFFFFFFFFFFFFFFFFFFFFF61
:102D8000FFFFFFFFFFFFFFFFFFFFFFFFFFFFFFFF53
:102D9000FFFF00000000FFFFFFFFFFFFFFFF00003D
:102DA0000000FFFFFFFFFFFFFFFF00000000FFFF2D
:102DB000FFFFFFFFFFFF00000000FFFFFFFFFFFF1F
:102DC000FFFF00000000FFFFFFFFFFFFFFFF00000D
:102DD0000000FFFFFFFFFFFFFFFF000000000000FB
:102DE0000000FFFFFFFFFFFFFFFFFFFFFFFFFFFFF1
:102DF000FFFFFFFFFFFFFFFFFFFF000000000000DD
:102E0000000000000000FFFFFFFFFFFFFFFFFFFFCC
:102E1000FFFFFFFFFFFFFFFFFFFFFFFFFFFF0000C0
:102E20000000000000000000000000000000FFFFA4
:102E3000FFFFFFFFFFFFFFFFFFFFFFFFFFFF0000A0
:102E40000000000000000000000000000000000082
:102E50000000FFFFFFFFFFFFFFFFFFFFFFFFFFFF80
:102E6000FFFF000000000000000000000000000064
:102E700000000000000000000000FFFFFFFFFFFF58
:102E8000FFFF000000000000000000000000000044
:102E90000000000000000000000000000000FFFF34
:102EA000FFFFFFFFFFFF0000000000000000000028
:102EB0000000000000000000000000000000000012
:102EC0000000000000000000000000000000000002
:102ED00000000000000000000000000000000000F2
:102EE00000000000000000000000000000000000E2
:103190000000000000000000000000000000FFFF31
:1031A000FFFFFFFFFFFF00000000FFFFFFFFFFFF2B
:1031B000FFFF000000000000000000000000000011
:1031C0000000000000000000000000000000FFFF01
:1031D000FFFFFFFFFFFF00000000FFFFFFFFFFFFFB
:1031E000FFFF0000000000000000000000000000E1
:1031F0000000FFFFFFFF00000000FFFFFFFF0000D7
:1032000000000000000000000000000000000000BE
:103210000000FFFFFFFF00000000FFFFFFFF0000B6
:103220000000FFFFFFFF00000000FFFFFFFF0000A6
:10323000000000000000000000000000000000008E
:103240000000FFFFFFFF00000000FFFFFFFF000086
:103250000000FFFFFFFF00000000FFFFFFFFFFFF78
:10326000FFFFFFFFFFFFFFFFFFFFFFFFFFFFFFFF6E
:10327000FFFFFFFFFFFF00000000FFFFFFFF000058
:103280000000FFFFFFFF00000000FFFFFFFFFFFF48
:10329000FFFFFFFFFFFFFFFFFFFFFFFFFFFFFFFF3E
:1032A000FFFFFFFFFFFF00000000FFFFFFFF000028
:1032B0000000FFFFFFFFFFFFFFFFFFFFFFFFFFFF1C
:1032C000FFFFFFFFFFFFFFFFFFFFFFFFFFFFFFFF0E
:1032D000FFFFFFFFFFFFFFFFFFFFFFFFFFFF0000FC
:1032E0000000FFFFFFFFFFFFFFFFFFFFFFFFFFFFEC
:1032F000FFFFFFFFFFFFFFFFFFFFFFFFFFFFFFFFDE
:10330000FFFFFFFFFFFFFFFFFFFFFFFFFFFF0000CB
:10331000000000000000FFFFFFFFFFFFFFFF0000B5
:103320000000FFFFFFFFFFFFFFFFFFFFFFFF0000A9
:103330000000FFFFFFFFFFFFFFFF00000000000095
:10334000000000000000FFFFFFFFFFFFFFFF000085
:103350000000FFFFFFFFFFFFFFFFFFFFFFFF000079
:103360000000FFFFFFFFFFFFFFFF00000000000065
:1033700000000000000000000000FFFFFFFFFFFF53
:10338000FFFFFFFFFFFFFFFFFFFFFFFFFFFFFFFF4D
:10339000FFFFFFFFFFFF0000000000000000000033
:1033A00000000000000000000000FFFFFFFFFFFF23
:1033B000FFFFFFFFFFFFFFFFFFFFFFFFFFFFFFFF1D
:1033C000FFFFFFFFFFFF0000000000000000000003
:1033D0000000000000000000000000000000FFFFEF
:1033E000FFFF000000000000000000000000FFFFE1
:1033F000FFFF0000000000000000000000000000CF
:103400000000000000000000000000000000FFFFBE
:10341000FFFF000000000000000000000000FFFFB0
:10342000FFFF00000000000000000000000000009E
:1034300000000000000000000000FFFFFFFF000090
:10344000000000000000000000000000000000007C
:103450000000FFFFFFFF0000000000000000000070
:1034600000000000000000000000FFFFFFFF000060
:10347000000000000000000000000000000000004C
:103480000000FFFFFFFF0000000000000000000040
:10349000000000000000000000000000000000002C
:1034A000000000000000000000000000000000001C
:1034B000000000000000000000000000000000000C
:1034C00000000000000000000000000000000000FC
:10385000000000000000000000000000000000F870
:1038600000F800F800F80000000000F800F800F888
:1038700000F8000000000000000000000000000050
:10388000000000000000000000000000000000F840
:1038900000F800F800F80000000000F800F800F858
:1038A00000F8000000000000000000000000000020
:1038B000000000F800F80000000000F800F8000028
:1038C00000000000000000000000000000000000F8
:1038D000000000F800F80000000000F800F8000008
:1038E000000000F800F80000000000F800F80000F8
:1038F00000000000000000000000000000000000C8
:10390000000000F800F80000000000F800F80000D7
:10391000000000F800F80000000000F800F800F8CF
:1039200000F800F800F800F800F800F800F800F8D7
:1039300000F800F800F80000000000F800F80000AF
:10394000000000F800F80000000000F800F800F89F
:1039500000F800F800F800F800F800F800F800F8A7
:1039600000F800F800F80000000000F800F800007F
:10397000000000F800F800F800F800F800F800F87F
:1039800000F800F800F800F800F800F800F800F877
:1039900000F800F800F800F800F800F800F800005F
:1039A000000000F800F800F800F800F800F800F84F
:1039B00000F800F800F800F800F800F800F800F847
:1039C00000F800F800F800F800F800F800F800002F
:1039D00000000000000000F800F800F800F8000007
:1039E000000000F800F800F800F800F800F8000007
:1039F000000000F800F800F800F8000000000000E7
:103A000000000000000000F800F800F800F80000D6
:103A1000000000F800F800F800F800F800F80000D6
:103A2000000000F800F800F800F8000000000000B6
:103A30000000000000000000000000F800F800F89E
:103A400000F800F800F800F800F800F800F800F8B6
:103A500000F800F800F8000000000000000000007E
:103A60000000000000000000000000F800F800F86E
:103A700000F800F800F800F800F800F800F800F886
:103A800000F800F800F8000000000000000000004E
:103A9000000000000000000000000000000000F82E
:103AA00000F800000000000000000000000000F826
:103AB00000F800000000000000000000000000000E
:103AC000000000000000000000000000000000F8FE
:103AD00000F800000000000000000000000000F8F6
:103AE00000F80000000000000000000000000000DE
:103AF0000000000000000000000000F800F80000D6
:103B000000000000000000000000000000000000B5
:103B1000000000F800F800000000000000000000B5
:103B20000000000000000000000000F800F80000A5
:103B30000000000000000000000000000000000085
:103B4000000000F800F80000000000000000000085
:103B50000000000000000000000000000000000065
:103B60000000000000000000000000000000000055
:103B70000000000000000000000000000000000045
:103B80000000000000000000000000000000000035
:103F1000000000000000FFFFFFFFFFFFFFFF0000A9
:103F20000000000000000000000000000000000091
:103F30000000000000000000000000000000FFFF83
:103F4000FFFFFFFFFFFF00000000FFFFFFFFFFFF7D
:103F5000FFFF000000000000000000000000000063
:103F60000000000000000000000000000000000051
:103F70000000FFFFFFFFFFFFFFFF00000000000049
:103F8000000000000000FFFFFFFFFFFFFFFF000039
:103F90000000FFFFFFFFFFFFFFFF00000000FFFF2B
:103FA000FFFFFFFFFFFF0000000000000000000017
:103FB00000000000000000000000FFFFFFFFFFFF07
:103FC000FFFF00000000FFFFFFFFFFFFFFFF0000FB
:103FD0000000FFFFFFFFFFFFFFFF000000000000E9
:103FE00000000000000000000000000000000000D1
:103FF0000000FFFFFFFFFFFFFFFF000000000000C9
:104000000000FFFFFFFFFFFFFFFF000000000000B8
:1040100000000000000000000000000000000000A0
:10402000000000000000FFFFFFFFFFFFFFFF000098
:10403000000000000000FFFFFFFFFFFFFFFF000088
:104040000000000000000000000000000000FFFF72
:10405000FFFFFFFFFFFFFFFFFFFFFFFFFFFFFFFF70
:10406000FFFFFFFFFFFFFFFFFFFFFFFFFFFFFFFF60
:10407000FFFFFFFFFFFFFFFFFFFFFFFFFFFF00004E
:104080000000FFFFFFFFFFFFFFFFFFFFFFFFFFFF3E
:10409000FFFFFFFFFFFFFFFFFFFFFFFFFFFFFFFF30
:1040A000FFFFFFFFFFFFFFFFFFFFFFFFFFFFFFFF20
:1040B000FFFF00000000FFFFFFFFFFFFFFFFFFFF0C
:1040C000FFFF0000000000000000FFFFFFFFFFFFF8
:1040D000FFFF0000000000000000FFFFFFFFFFFFE8
:1040E000FFFFFFFFFFFF00000000FFFFFFFFFFFFDC
:1040F000FFFFFFFFFFFF0000000000000000FFFFC8
:10410000FFFFFFFFFFFF0000000000000000FFFFB7
:10411000FFFFFFFFFFFFFFFFFFFF00000000FFFFAB
:10412000FFFFFFFFFFFFFFFFFFFFFFFFFFFFFFFF9F
:10413000FFFFFFFFFFFFFFFFFFFFFFFFFFFFFFFF8F
:10414000FFFFFFFFFFFFFFFFFFFFFFFFFFFF00007D
:104150000000FFFFFFFFFFFFFFFFFFFFFFFFFFFF6D
:10416000FFFFFFFFFFFFFFFFFFFFFFFFFFFFFFFF5F
:10417000FFFFFFFFFFFFFFFFFFFFFFFFFFFFFFFF4F
:10418000FFFF0000000000000000FFFFFFFFFFFF37
:10419000FFFFFFFFFFFFFFFFFFFFFFFFFFFFFFFF2F
:1041A000FFFFFFFFFFFFFFFFFFFFFFFFFFFFFFFF1F
:1041B000FFFF000000000000000000000000FFFF03
:1041C000FFFFFFFFFFFFFFFFFFFFFFFFFFFFFFFFFF
:1041D000FFFFFFFFFFFFFFFFFFFFFFFFFFFFFFFFEF
:1041E000FFFFFFFFFFFF00000000000000000000D5
:1041F0000000000000000000000000000000FFFFC1
:10420000FFFFFFFFFFFFFFFFFFFFFFFFFFFF0000BC
:10421000000000000000000000000000000000009E
:10422000000000000000000000000000000000008E
:104230000000FFFFFFFFFFFFFFFFFFFFFFFFFFFF8C
:10424000FFFF000000000000000000000000000070
:10425000000000000000000000000000000000005E
:10426000000000000000000000000000000000004E
:10427000000000000000000000000000000000003E
:10428000000000000000000000000000000000002E
:10466000000000000000E007E007E007E0070000AE
:10467000000000000000000000000000000000003A
:104680000000000000000000000000000000E00743
:10469000E007E007E00700000000E007E007E007B0
:1046A000E007000000000000000000000000000023
:1046B00000000000000000000000000000000000FA
:1046C0000000E007E007E007E0070000000000004E
:1046D000000000000000E007E007E007E00700003E
:1046E0000000E007E007E007E00700000000E00747
:1046F000E007E007E0070000000000000000000005
:1047000000000000000000000000E007E007E007F4
:10471000E00700000000E007E007E007E007000016
:104720000000E007E007E007E007000000000000ED
:104730000000000000000000000000000000000079
:104740000000E007E007E007E007000000000000CD
:104750000000E007E007E007E007000000000000BD
:104760000000000000000000000000000000000049
:10477000000000000000E007E007E007E00700009D
:10478000000000000000E007E007E007E00700008D
:104790000000000000000000000000000000E00732
:1047A000E007E007E007E007E007E007E007E007D1
:1047B000E007E007E007E007E007E007E007E007C1
:1047C000E007E007E007E007E007E007E007000098
:1047D0000000E007E007E007E007E007E007E00788
:1047E000E007E007E007E007E007E007E007E00791
:1047F000E007E007E007E007E007E007E007E00781
:10480000E00700000000E007E007E007E007E0073E
:10481000E0070000000000000000E007E007E007FC
:10482000E0070000000000000000E007E007E007EC
:10483000E007E007E00700000000E007E007E0070E
:10484000E007E007E0070000000000000000E007CC
:10485000E007E007E0070000000000000000E007BC
:10486000E007E007E007E007E00700000000E007DE
:10487000E007E007E007E007E007E007E007E00700
:10488000E007E007E007E007E007E007E007E007F0
:10489000E007E007E007E007E007E007E0070000C7
:1048A0000000E007E007E007E007E007E007E007B7
:1048B000E007E007E007E007E007E007E007E007C0
:1048C000E007E007E007E007E007E007E007E007B0
:1048D000E0070000000000000000E007E007E0073C
:1048E000E007E007E007E007E007E007E007E00790
:1048F000E007E007E007E007E007E007E007E00780
:10490000E007000000000000000000000000E007D9
:10491000E007E007E007E007E007E007E007E0075F
:10492000E007E007E007E007E007E007E007E0074F
:10493000E007E007E00700000000000000000000C2
:104940000000000000000000000000000000E00780
:10495000E007E007E007E007E007E007E007000006
:104960000000000000000000000000000000000047
:104970000000000000000000000000000000000037
:104980000000E007E007E007E007E007E007E007D6
:10499000E007000000000000000000000000000030
:1049A0000000000000000000000000000000000007
:1049B00000000000000000000000000000000000F7
:1049C00000000000000000000000000000000000E7
:1049D00000000000000000000000000000000000D7
:104DB00000000000000000F800F800F800F8000013
:104DC00000000000000000000000000000000000E3
:104DD000000000000000000000000000000000F8DB
:104DE00000F800F800F80000000000F800F800F8F3
:104DF00000F80000000000000000000000000000BB
:104E000000000000000000000000000000000000A2
:104E1000000000F800F800F800F8000000000000B2
:104E200000000000000000F800F800F800F80000A2
:104E3000000000F800F800F800F80000000000F89A
:104E400000F800F800F8000000000000000000007A
:104E50000000000000000000000000F800F800F86A
:104E600000F80000000000F800F800F800F800006A
:104E7000000000F800F800F800F800000000000052
:104E80000000000000000000000000000000000022
:104E9000000000F800F800F800F800000000000032
:104EA000000000F800F800F800F800000000000022
:104EB00000000000000000000000000000000000F2
:104EC00000000000000000F800F800F800F8000002
:104ED00000000000000000F800F800F800F80000F2
:104EE000000000000000000000000000000000F8CA
:104EF00000F800F800F800F800F800F800F800F8F2
:104F000000F800F800F800F800F800F800F800F8E1
:104F100000F800F800F800F800F800F800F80000C9
:104F2000000000F800F800F800F800F800F800F8B9
:104F300000F800F800F800F800F800F800F800F8B1
:104F400000F800F800F800F800F800F800F800F8A1
:104F500000F80000000000F800F800F800F800F881
:104F600000F8000000000000000000F800F800F861
:104F700000F8000000000000000000F800F800F851
:104F800000F800F800F80000000000F800F800F851
:104F900000F800F800F8000000000000000000F831
:104FA00000F800F800F8000000000000000000F821
:104FB00000F800F800F800F800F80000000000F821
:104FC00000F800F800F800F800F800F800F800F821
:104FD00000F800F800F800F800F800F800F800F811
:104FE00000F800F800F800F800F800F800F80000F9
:104FF000000000F800F800F800F800F800F800F8E9
:1050000000F800F800F800F800F800F800F800F8E0
:1050100000F800F800F800F800F800F800F800F8D0
:1050200000F8000000000000000000F800F800F8A0
:1050300000F800F800F800F800F800F800F800F8B0
:1050400000F800F800F800F800F800F800F800F8A0
:1050500000F800000000000000000000000000F860
:1050600000F800F800F800F800F800F800F800F880
:1050700000F800F800F800F800F800F800F800F870
:1050800000F800F800F80000000000000000000038
:10509000000000000000000000000000000000F818
:1050A00000F800F800F800F800F800F800F8000038
:1050B00000000000000000000000000000000000F0
:1050C00000000000000000000000000000000000E0
:1050D000000000F800F800F800F800F800F800F808
:1050E00000F80000000000000000000000000000C8
:1050F00000000000000000000000000000000000B0
:10510000000000000000000000000000000000009F
:10511000000000000000000000000000000000008F
:10512000000000000000000000000000000000007F
:105520000000000000000000000000000000FFFF7D
:10553000FFFFFFFFFFFFFFFFFFFFFFFFFFFF000079
:10554000000000000000000000000000000000005B
:10555000000000000000000000000000000000004B
:10556000000000000000000000000000000000003B
:105570000000FFFFFFFFFFFFFFFFFFFFFFFFFFFF39
:10558000FFFF00000000000000000000000000001D
:10559000000000000000000000000000000000000B
:1055A00000000000000000000000FFFFFFFFFFFF01
:1055B000FFFFFFFFFFFFFFFFFFFFFFFFFFFFFFFFFB
:1055C000FFFFFFFFFFFFFFFFFFFFFFFFFFFF0000E9
:1055D00000000000000000000000000000000000CB
:1055E0000000000000000000000000000000FFFFBD
:1055F000FFFFFFFFFFFFFFFFFFFFFFFFFFFFFFFFBB
:10560000FFFFFFFFFFFFFFFFFFFFFFFFFFFFFFFFAA
:10561000FFFF00000000000000000000000000008C
:105620000000000000000000000000000000FFFF7C
:10563000FFFFFFFFFFFFFFFFFFFFFFFFFFFFFFFF7A
:10564000FFFFFFFFFFFFFFFFFFFFFFFFFFFFFFFF6A
:10565000FFFFFFFFFFFFFFFFFFFFFFFFFFFF000058
:10566000000000000000000000000000000000003A
:105670000000FFFFFFFFFFFFFFFFFFFFFFFFFFFF38
:10568000FFFFFFFFFFFFFFFFFFFFFFFFFFFFFFFF2A
:10569000FFFFFFFFFFFFFFFFFFFFFFFFFFFFFFFF1A
:1056A000FFFF0000000000000000000000000000FC
:1056B0000000FFFFFFFFFFFFFFFF00F800F8FFFF04
:1056C000FFFF00F800F8FFFFFFFF00F800F8FFFF02
:1056D000FFFFFFFFFFFFFFFFFFFFFFFFFFFFFFFFDA
:1056E000FFFFFFFFFFFFFFFFFFFF000000000000C4
:1056F000000000000000FFFFFFFFFFFFFFFF00F8BA
:1057000000F8FFFFFFFF00F800F8FFFFFFFF00F8C1
:1057100000F8FFFFFFFFFFFFFFFFFFFFFFFFFFFF9F
:10572000FFFFFFFFFFFFFFFFFFFFFFFFFFFF000087
:1057300000000000000000000000FFFFFFFFFFFF6F
:10574000FFFF00F800F800F800F800F800F800F893
:1057500000F800F800F8FFFFFFFFFFFFFFFFFFFF6B
:10576000FFFFFFFFFFFFFFFFFFFFFFFFFFFFFFFF49
:10577000FFFFFFFFFFFF0000000000000000FFFF31
:10578000FFFFFFFFFFFF00F800F800F800F800F847
:1057900000F800F800F800F800F8FFFFFFFFFFFF37
:1057A000FFFFFFFFFFFFFFFFFFFFFFFFFFFFFFFF09
:1057B000FFFFFFFFFFFFFFFFFFFF00000000FFFFF5
:1057C000FFFFFFFFFFFF00F800F800F800F800F807
:1057D00000F800F800F800F800F8FFFFFFFFFFFFF7
:1057E000FFFFFFFFFFFFFFFFFFFFFFFFFFFFFFFFC9
:1057F000FFFFFFFFFFFFFFFFFFFFFFFFFFFF0000B7
:105800000000FFFFFFFFFFFFFFFF00F800F800F8B8
:1058100000F800F800F800F800F800F800F8FFFFC2
:10582000FFFFFFFFFFFFFFFFFFFFFFFFFFFFFFFF88
:10583000FFFFFFFFFFFFFFFFFFFFFFFFFFFFFFFF78
:10584000FFFF00000000FFFFFFFFFFFFFFFF00F86A
:1058500000F800F800F800F800F800F800F800F888
:1058600000F8FFFFFFFFFFFFFFFFFFFFFFFFFFFF4E
:10587000FFFF00000000FFFFFFFFFFFFFFFFFFFF34
:10588000FFFFFFFFFFFF00000000FFFFFFFFFFFF24
:10589000FFFF00F800F800F800F800F800F800F842
:1058A00000F800F800F8FFFFFFFFFFFFFFFFFFFF1A
:1058B000FFFFFFFFFFFFFFFFFFFF00000000FFFFF4
:1058C000FFFFFFFFFFFFFFFFFFFF00000000FFFFE4
:1058D000FFFFFFFFFFFF00F800F8FFFFFFFF00F8EA
:1058E00000F8FFFFFFFF00F800F8FFFFFFFFFFFFDA
:1058F000FFFFFFFFFFFFFFFFFFFFFFFFFFFF0000B6
:105900000000FFFFFFFFFFFFFFFF0000000000009F
:105910000000FFFFFFFFFFFFFFFF00F800F8FFFFA1
:10592000FFFF00F800F8FFFFFFFF00F800F8FFFF9F
:10593000FFFFFFFFFFFFFFFFFFFFFFFFFFFFFFFF77
:10594000FFFF00000000FFFFFFFFFFFFFFFF000061
:10595000000000000000FFFFFFFFFFFFFFFFFFFF51
:10596000FFFFFFFFFFFFFFFFFFFFFFFFFFFFFFFF47
:10597000FFFFFFFFFFFFFFFFFFFF00000000FFFF33
:10598000FFFFFFFFFFFF00000000FFFFFFFFFFFF23
:10599000FFFF0000000000000000FFFFFFFFFFFF0F
:1059A000FFFFFFFFFFFFFFFFFFFFFFFFFFFFFFFF07
:1059B000FFFFFFFFFFFFFFFFFFFFFFFFFFFF0000F5
:1059C0000000FFFFFFFFFFFFFFFF00000000FFFFE1
:1059D000FFFFFFFFFFFF0000000000000000FFFFCF
:1059E000FFFFFFFFFFFFFFFFFFFF00000000FFFFC3
:1059F000FFFF00000000FFFFFFFFFFFFFFFFFFFFB3
:105A0000FFFFFFFFFFFF0000000000000000FFFF9E
:105A1000FFFFFFFFFFFFFFFFFFFF00000000000090
:105A20000000FFFFFFFFFFFFFFFFFFFFFFFF000082
:105A30000000FFFFFFFF00000000FFFFFFFFFFFF70
:105A4000FFFFFFFFFFFFFFFFFFFF00000000000060
:105A50000000FFFFFFFFFFFFFFFFFFFFFFFF000052
:105A600000000000000000000000FFFFFFFFFFFF3C
:105A7000FFFF00000000FFFFFFFF00000000FFFF2E
:105A8000FFFFFFFFFFFFFFFFFFFFFFFFFFFFFFFF26
:105A9000FFFFFFFFFFFFFFFFFFFFFFFFFFFF000014
:105AA0000000000000000000000000000000FFFFF8
:105AB000FFFFFFFFFFFF00000000FFFFFFFF0000F0
:105AC0000000FFFFFFFFFFFFFFFFFFFFFFFFFFFFE4
:105AD000FFFFFFFFFFFFFFFFFFFFFFFFFFFFFFFFD6
:105AE000FFFF0000000000000000000000000000B8
:105AF0000000FFFFFFFFFFFFFFFFFFFFFFFFFFFFB4
:105B0000FFFFFFFFFFFFFFFFFFFFFFFFFFFFFFFFA5
:105B1000FFFFFFFFFFFFFFFFFFFFFFFFFFFFFFFF95
:105B2000FFFFFFFFFFFF000000000000000000007B
:105B3000000000000000FFFFFFFFFFFFFFFFFFFF6F
:105B4000FFFFFFFFFFFFFFFFFFFFFFFFFFFFFFFF65
:105B5000FFFFFFFFFFFFFFFFFFFFFFFFFFFFFFFF55
:105B6000FFFFFFFFFFFFFFFFFFFF0000000000003F
:105B70000000000000000000000000000000FFFF27
:105B8000FFFFFFFFFFFFFFFFFFFFFFFFFFFFFFFF25
:105B9000FFFFFFFFFFFFFFFFFFFFFFFFFFFFFFFF15
:105BA000FFFFFFFFFFFFFFFFFFFF000000000000FF
:105BB00000000000000000000000000000000000E5
:105BC0000000FFFFFFFFFFFFFFFFFFFFFFFFFFFFE3
:105BD000FFFFFFFFFFFFFFFFFFFFFFFFFFFFFFFFD5
:105BE000FFFFFFFFFFFFFFFFFFFFFFFFFFFF0000C3
:105BF00000000000000000000000000000000000A5
:105C000000000000000000000000FFFFFFFFFFFF9A
:105C1000FFFFFFFFFFFFFFFFFFFFFFFFFFFFFFFF94
:105C2000FFFFFFFFFFFFFFFFFFFFFFFFFFFF000082
:105C30000000000000000000000000000000000064
:105C40000000000000000000000000000000FFFF56
:105C5000FFFFFFFFFFFFFFFFFFFFFFFFFFFFFFFF54
:105C6000FFFFFFFFFFFFFFFFFFFFFFFFFFFFFFFF44
:105C7000FFFF000000000000000000000000000026
:105C80000000000000000000000000000000000014
:105C900000000000000000000000FFFFFFFFFFFF0A
:105CA000FFFFFFFFFFFFFFFFFFFFFFFFFFFF000002
:105CB00000000000000000000000000000000000E4
:105CC00000000000000000000000000000000000D4
:105CD0000000000000000000000000000000FFFFC6
:105CE000FFFFFFFFFFFFFFFFFFFFFFFFFFFFFFFFC4
:105CF000FFFF0000000000000000000000000000A6
:105D00000000000000000000000000000000000093
:105D10000000000000000000000000000000000083
:105D20000000000000000000000000000000000073
:105D30000000000000000000000000000000000063
:1065D00000000000000000000404040404000400A3
:1065E0000A0A0A00000000000A0A1F0A1F0A0A001D
:1065F000041E050E140F04000313080402191800EA
:1066000002050502150916000C0C0402000000002A
:106610000804020202040800020408080804020038
:106620000004150E0E1504000004041F04040000ED
:10663000000000000C0C04020000001F000000001D
:1066400000000000000C0C00001008040201000013
:106650000E11131519110E000406040404040E0093
:106660000E11100E01011F001F10080C10110E005A
:10667000080C0A091F0808001F010F1010110E0056
:106680001C02010F11110E001F101008040201005E
:106690000E11110E11110E000E11111E100807001F
:1066A00000000400040000000000040004040200D4
:1066B000100804020408100000001F001F00000062
:1066C00002040810080402000E11100C040004005B
:1066D0000E11151D0D011E00040A11111F111100CC
:1066E0000F11110F11110F000E11010101110E00F8
:1066F0000F11111111110F001F01010F01011F00D6
:106700001F01010F010101001E11010119111E00DD
:106710001111111F111111000E04040404040E00C4
:106720001C080808080906001109050305091100DD
:106730000101010101011F00111B151515111100A7
:1067400011111315191111000E11111111110E0053
:106750000F11110F010101000E1111111509160081
:106760000F11110F050911000E11010E10110E006D
:106770001F150404040404001111111111110E005D
:1067800011111111110A04001111111515150A002A
:1067900011110A040A11110011110A040404040061
:1067A0001F10080E02011F001E02020202021E003C
:1067B00000010204081000001E10101010101E002E
:1067C000040A1100000000000000000000001F008B
:1067D0000606040800000000000006080E091E005E
:1067E00001010D1311130D0000000E1101110E0017
:1067F000101016191119160000000E111F010E00BD
:106800000814040E0404040000000E191916100EDA
:1068100001010D13111111000400060404040E00FF
:106820000800080808090600010109050305090018
:106830000604040404040E0000000B1515151500D1
:1068400000000D131111110000000E1111110E00A6
:1068500000000D13130D0101000016191916101078
:1068600000000D130101010000001E010E100F00B9
:1068700004041F040414080000001111111916006B
:1068800000001111110A04000000111115150A0071
:106890000000110A040A1100000011111E10110E4F
:1068A00000001F0804021F0008040402040408007A
:1068B00004040400040404000204040804040200A4
:1068C00002150800000000000000000000000000A9
:1068D00000000C12120C000000000C1E1E0C000028
:1068E00000001E12121E000000001E1E1E1E0000D0
:1068F00000000C0C121E000000000C0C1E1E0000FC
:1069000000001E120C0C000000001E1E0C0C0000EB
:1069100000001816161800000000181E1E180000AF
:106920000000061A1A0600000000061E1E060000DF
:1069300000000C12120C000000000C1E1E0C0000C7
:1069400000001E12121E000000001E1E1E1E00006F
:106950000000000000000000000000000000000037
:106960000000000000000000000000000000000027
:106970000000000000000000000000000000000017
:106980000000800180018001800180018001800180
:1069900080018001800180018001800100000000F1
:1069A00080018001000000000000000000000000E5
:1069B00000000000CC00CC00CC00CC00CC00CC000F
:1069C00000000000000000000000000000000000C7
:1069D00000000000000000000000000000000000B7
:1069E000000000000000000000000000600C600CCF
:1069F000600C30063006FE1FFE1F300638071803F5
:106A0000FE1FFE1F180318038C018C018C0100006F
:106A100000008000E003F80F9C0E8C1C8C188C008A
:106A20009800F801E007800E801C8C188C189C18C8
:106A3000B80CF00FE00380008000000000000000B0
:106A40000000000000000E181B0C110C11061106AE
:106A5000110311039B018E01C038C06C6044604477
:106A6000304430441844186C0C380000000000001A
:106A70000000E001F0033807180618063003F001A3
:106A8000F000F8009C310E33061E061C061C063F63
:106A9000FC73F02100000000000000000000000076
:106AA000000000000C000C000C000C000C000C009E
:106AB00000000000000000000000000000000000D6
:106AC00000000000000000000000000000000000C6
:106AD0000000000200038001C000C00060006000F0
:106AE0003000300030003000300030003000300026
:106AF00060006000C000C0008001000300020000D0
:106B0000000020006000C00080018001000300033D
:106B10000006000600060006000600060006000645
:106B20000003000380018001C0006000200000001D
:106B3000000000000000000000000000C000C000D5
:106B4000D806F807E0013003380700000000000015
:106B50000000000000000000000000000000000035
:106B60000000000000000000000000008001800123
:106B7000800180018001FC3FFC3F80018001800199
:106B80008001800100000000000000000000000003
:106B900000000000000000000000000000000000F5
:106BA00000000000000000000000000000000000E5
:106BB0000000800180010001000180000000000051
:106BC00000000000000000000000000000000000C5
:106BD0000000000000000000E007E00700000000E7
:106BE00000000000000000000000000000000000A5
:106BF0000000000000000000000000000000000095
:106C00000000000000000000000000000000000084
:106C10000000C000C00000000000000000000000F4
:106C20000000000C000C0006000600060003000334
:106C300000038003800180018001C000C000C0000B
:106C40006000600000000000000000000000000084
:106C50000000E003F007380E180C0C180C180C1884
:106C60000C180C180C180C180C180C18180C380EE2
:106C7000F007E0030000000000000000000000003A
:106C8000000000018001C001F0019801880180012D
:106C900080018001800180018001800180018001EC
:106CA00080018001000000000000000000000000E2
:106CB0000000E003F80F180C0C180C18001800184E
:106CC000000C000600038001C000600030001800C6
:106CD000FC1FFC1F0000000000000000000000007E
:106CE0000000E001F807180E0C0C0C0C000C00065C
:106CF000C003C007000C001800180C180C18180C62
:106D0000F807E003000000000000000000000000A1
:106D10000000000C000E000F000F800DC00C600C76
:106D2000600C300C180C0C0CFC3FFC3F000C000CF1
:106D3000000C000C0000000000000000000000003B
:106D40000000F80FF80F180018000C00EC03FC0707
:106D50001C0E001C0018001800180C181C0C180E33
:106D6000F807E00300000000000000000000000041
:106D70000000C007F00F381C181818000C00CC03D6
:106D8000EC0F3C0E1C1C0C180C180C18181C380EA0
:106D9000F007E00300000000000000000000000019
:106DA0000000FC1FFC1F000C00060006000380030F
:106DB0008001C001C000E000600060007000300091
:106DC0003000300000000000000000000000000063
:106DD0000000E003F007380E180C180C180C3806E9
:106DE000F007F007180C0C180C180C180C18380CBD
:106DF000F80FE003000000000000000000000000A9
:106E00000000E003F007380E1C0C0C180C180C18CE
:106E10001C1C381EF81BE0190018000C000C1C0E7E
:106E2000F807F00100000000000000000000000072
:106E30000000000000000000000000008001800150
:106E40000000000000000000000000000000000042
:106E50008001800100000000000000000000000030
:106E60000000000000000000000000008001800120
:106E70000000000000000000000000000000000012
:106E8000800180010001000180000000000000007E
:106E900000000000000000000000000000000000F2
:106EA0000010001C800FE003F8001800F800E00359
:106EB000800F001C00100000000000000000000017
:106EC00000000000000000000000000000000000C2
:106ED000F81F000000000000F81F00000000000084
:106EE00000000000000000000000000000000000A2
:106EF0000000000000000000000000000000000092
:106F000008003800F001C007001F0018001FC0076C
:106F1000F001380008000000000000000000000040
:106F20000000E003F80F180C0C180C180018000CE7
:106F3000000600038001C000C000C0000000000087
:106F4000C000C000000000000000000000000000C1
:106F500000000000E00718180420C229224A11444A
:106F600009440944094409221113E20C0240042097
:106F70001818E007000000000000000000000000FA
:106F8000000080038003C006C006C006600C600CD1
:106F9000301830183018F83FF83F1C700C600C6047
:106FA00006C006C000000000000000000000000055
:106FB0000000FC03FC0F0C0C0C180C180C180C0C2B
:106FC000FC07FC0F0C180C300C300C300C300C187B
:106FD000FC1FFC0700000000000000000000000093
:106FE0000000C007F01F38381C300C700660060027
:106FF0000600060006000600060006600C701C3045
:10700000F01FE0070000000000000000000000008A
:107010000000FE03FE0F060E0618061806300630A6
:107020000630063006300630063006180618060E02
:10703000FE0FFE0300000000000000000000000042
:107040000000FC3FFC3F0C000C000C000C000C008E
:10705000FC1FFC1F0C000C000C000C000C000C00B2
:10706000FC3FFC3F000000000000000000000000AA
:107070000000F83FF83F180018001800180018002A
:10708000F81FF81F18001800180018001800180042
:1070900018001800000000000000000000000000C0
:1070A0000000E00FF83F3C780E6006E007C00300E8
:1070B000030003FE03FE03C007C006C00EC03CF081
:1070C000F83FE00F0000000000000000000000009A
:1070D00000000C300C300C300C300C300C300C300C
:1070E000FC3FFC3F0C300C300C300C300C300C30C2
:1070F0000C300C3000000000000000000000000018
:1071000000008001800180018001800180018001F8
:107110008001800180018001800180018001800167
:10712000800180010000000000000000000000005D
:107130000000000600060006000600060006000625
:1071400000060006000600060006180618063807A6
:10715000F003E0010000000000000000000000005B
:10716000000006300618060C060606038601C60057
:1071700066007600DE008E0106030606060C061881
:107180000630066000000000000000000000000063
:107190000000180018001800180018001800180047
:1071A000180018001800180018001800180018001F
:1071B000F81FF81F000000000000000000000000A1
:1071C00000000EE01EF01EF01EF036D836D836D87D
:1071D00036D866CC66CC66CCC6C6C6C6C6C6C6C6DB
:1071E00086C386C30000000000000000000000000D
:1071F00000000C301C303C303C306C306C30CC30FB
:10720000CC308C310C330C330C360C360C3C0C3C33
:107210000C380C30000000000000000000000000EE
:107220000000E007F81F1C380E70066003C003C0A2
:1072300003C003C003C003C003C006600E701C3847
:10724000F81FE00700000000000000000000000040
:107250000000FC0FFC1F0C380C300C300C300C30D4
:107260000C18FC1FFC070C000C000C000C000C00A0
:107270000C000C00000000000000000000000000F6
:107280000000E007F81F1C380E70066003E003C022
:1072900003C003C003C003C007E006630E3F1C3CED
:1072A000F83FE0F700C00000000000000000000010
:1072B0000000FE0FFE1F0638063006300630063886
:1072C000FE1FFE0706030606060C06180618063003
:1072D0000630066000000000000000000000000012
:1072E0000000E003F80F1C0C0C180C180C001C001C
:1072F000F803E00F001E0038063006300E301C1C6C
:10730000F80FE0070000000000000000000000008F
:107310000000FE7FFE7F80018001800180018001EE
:107320008001800180018001800180018001800155
:10733000800180010000000000000000000000004B
:1073400000000C300C300C300C300C300C300C3099
:107350000C300C300C300C300C300C300C30181859
:10736000F81FE0070000000000000000000000001F
:10737000000003600630063006300C180C180C189C
:10738000180C180C380E30063006700760036003C6
:10739000C001C0010000000000000000000000006B
:1073A00000000360C361C361C36166336633663343
:1073B0006633663366336C1B6C1B6C1B2C1A3C1ECD
:1073C000380E380E00000000000000000000000031
:1073D00000000FE00C7018303018700C600EC00701
:1073E00080038003C003E006700C301C18180C30BA
:1073F0000E6007E000000000000000000000000038
:10740000000003C006600C301C383818300C6006D1
:10741000E007C003800180018001800180018001BC
:10742000800180010000000000000000000000005A
:107430000000FC7FFC7F006000300018000C00069C
:1074400000038001C0006000300018000C0006003E
:10745000FE7FFE7F00000000000000000000000032
:107460000000E003E0036000600060006000600076
:10747000600060006000600060006000600060000C
:1074800060006000600060006000E003E003000056
:10749000000030003000600060006000C000C000EC
:1074A000C000C001800180018001000300030003CF
:1074B00000060006000000000000000000000000C0
:1074C0000000E003E00300030003000300030003E7
:1074D0000003000300030003000300030003000394
:1074E00000030003000300030003E003E0030000C7
:1074F00000000000C001C0016003600360033006AB
:107500003006180C180C00000000000000000000FD
:10751000000000000000000000000000000000006B
:10752000000000000000000000000000000000005B
:10753000000000000000000000000000000000004B
:107540000000FFFFFFFF000000000000000000003F
:1075500000000C000C000C000C000C000C000000E3
:10756000000000000000000000000000000000001B
:10757000000000000000000000000000000000000B
:10758000000000000000000000000000F003F80709
:107590001C0C0C0C000FF00FF80C0C0C0C0C1C0F3E
:1075A000F80FF018000000000000000000000000CC
:1075B000000018001800180018001800D803F80F71
:1075C000380C181818181818181818181818380C13
:1075D000F80FD803000000000000000000000000C9
:1075E000000000000000000000000000C003F007E1
:1075F000300E180C1800180018001800180C300E67
:10760000F007C003000000000000000000000000C0
:10761000000000180018001800180018C01BF01F08
:10762000301C181818181818181818181818301CA2
:10763000F01FC01B00000000000000000000000060
:10764000000000000000000000000000C003F00F78
:10765000300C1818F81FF81F180018003818301CC4
:10766000F00FC00700000000000000000000000054
:107670000000800FC00FC000C000C000F007F0077E
:10768000C000C000C000C000C000C000C000C000FA
:10769000C000C0000000000000000000000000006A
:1076A000000000000000000000000000E00DF80FE6
:1076B000180E0C0C0C0C0C0C0C0C0C0C0C0C180EEE
:1076C000F80FE00D000C0C0C1C06F807F001000090
:1076D000000018001800180018001800D807F80F4C
:1076E000381C1818181818181818181818181818F6
:1076F000181818180000000000000000000000002A
:107700000000C000C000000000000000C000C00079
:10771000C000C000C000C000C000C000C000C00069
:10772000C000C000000000000000000000000000D9
:107730000000C000C000000000000000C000C00049
:10774000C000C000C000C000C000C000C000C00039
:10775000C000C000C000C000C000F80078000000F9
:1077600000000C000C000C000C000C000C0C0C06B3
:107770000C038C01CC006C00FC009C018C030C03FE
:107780000C060C0C000000000000000000000000CF
:107790000000C000C000C000C000C000C000C000A9
:1077A000C000C000C000C000C000C000C000C000D9
:1077B000C000C00000000000000000000000000049
:1077C0000000000000000000000000007C3CFF7E84
:1077D000C7E383C183C183C183C183C183C183C123
:1077E00083C183C100000000000000000000000011
:1077F0000000000000000000000000009807F80FE3
:10780000381C1818181818181818181818181818D4
:107810001818181800000000000000000000000008
:10782000000000000000000000000000C003F00F96
:10783000300C181818181818181818181818300CB0
:10784000F00FC00300000000000000000000000076
:10785000000000000000000000000000D803F80F46
:10786000380C181818181818181818181818380C70
:10787000F80FD803180018001800180018000000AE
:10788000000000000000000000000000C01BF01F0E
:10789000301C181818181818181818181818301C30
:1078A000F01FC01B00180018001800180018000076
:1078B000000000000000000000000000B007F0031E
:1078C00070003000300030003000300030003000F8
:1078D0003000300000000000000000000000000048
:1078E000000000000000000000000000E003F003C2
:1078F000380E180C3800F003C007000C180C380EB6
:10790000F007E0030000000000000000000000009D
:10791000000000008000C000C000C000F007F007B9
:10792000C000C000C000C000C000C000C000C00057
:10793000C0078007000000000000000000000000F9
:1079400000000000000000000000000018181818D7
:107950001818181818181818181818181818381C83
:10796000F01FE0190000000000000000000000000F
:107970000000000000000000000000000C18180CBF
:10798000180C180C300630063006600360036003E4
:10799000C001C00100000000000000000000000065
:1079A000000000000000000000000000C141C141D3
:1079B000C3616363636363633636363636361C1CD5
:1079C0001C1C1C1C00000000000000000000000047
:1079D0000000000000000000000000001C38381CFF
:1079E000300C6006C003C003C003C0036006300C47
:1079F000381C1C38000000000000000000000000DF
:107A000000000000000000000000000018303018E6
:107A100030187018600C600CE00CC006C0068003C3
:107A20008003800380018001C001F000700000002D
:107A3000000000000000000000000000FC1FFC1F10
:107A4000000C000600038001C00060003000180038
:107A5000FC1FFC1F000000000000000000000000F0
:107A6000000000038001C000C000C000C000C000D2
:107A7000C00060006000300060004000C000C00036
:107A8000C000C000C000C000800100030000000072
:107A9000000080018001800180018001800180015F
:107AA00080018001800180018001800180018001CE
:107AB000800180018001800180018001800100003F
:107AC00000006000C000C0018001800180018001D1
:107AD0008001000300030006000300018001800113
:107AE0008001800180018001C00060000000000072
:107AF0000000000000000000000000000000000086
:107B0000F010F81F080F0000000000000000000047
:107B10000000000000000000000000000000000065
:107B20000000000000000000000000000000000055
:107B30000000000000000000000000000000000045
:107B40000000000000000000000000000000000035
:107B500000000000000000000000C003300C08100E
:107B6000042004200240024002400240024004205F
:107B700004200810300CC0030000000000000000CA
:107B800000000000000000000000C003F00FF81F1C
:107B9000FC3FFC3FFE7FFE7FFE7FFE7FFE7FFC3FC3
:107BA000FC3FF81FF00FC0030000000000000000C1
:107BB0000000000000000000000000000000E007DE
:107BC000F00F181818181818181818181818F00F97
:107BD000E0070000000000000000000000000000BE
:107BE0000000000000000000000000000000E007AE
:107BF000F00FF81FF81FF81FF81FF81FF81FF00FFD
:107C0000E00700000000000000000000000000008D
:107C10000000000000000000000000000000000064
:107C200000000000000000008001C0036006300C6E
:107C300018181818F81FF81F0000000000000000B6
:107C40000000000000000000000000000000000034
:107C500000000000000000008001C003E007F00FFA
:107C6000F81FF81FF81FF81F0000000000000000B8
:107C70000000000000000000F81FF81F1818181876
:107C8000300C6006C003800100000000000000000E
:107C900000000000000000000000000000000000E4
:107CA0000000000000000000F81FF81FF81FF81F78
:107CB000F00FE007C003800100000000000000009A
:107CC00000000000000000000000000000000000B4
:107CD0000000000000000000000000000000E001C3
:107CE000F00198018C01860186018C019801F00158
:107CF000E0010000000000000000000000000000A3
:107D00000000000000000000000000000000E00192
:107D1000F001F801FC01FE01FE01FC01F801F00197
:107D2000E001000000000000000000000000000072
:107D300000000000000000000000000000008007BC
:107D4000800F801980318061806180318019800FBF
:107D5000800700000000000000000000000000009C
:107D6000000000000000000000000000000080078C
:107D7000800F801F803F807F807F803F801F800F2B
:107D8000800700000000000000000000000000006C
:107D90000000C00120022002400130060808080847
:107DA000080808080808080808082002200220021D
:107DB00020022002200220022002200220020000D5
:107DC0000000C001E003E003C001F007D80DD80DAA
:107DD000D80DD80DD80DD80DD80D60036003600301
:107DE00060036003600360036003600360030000DE
:107DF0000000C001200220024001300608080808E7
:107E00000808041002200220400120022002100471
:107E100008080808041004100420044000000000B2
:107E20000000C001E003E003C001F007D80DD80D49
:107E3000D80DCC19C631C261C00160036003700661
:107E4000380C180C0C180C180C300C6000000000DA
:107E5000060008002000000070000000D065000847
:107E60001000180020000000700000005069000899
:107E7000907E00080000002054000000E80C00087C
:107E8000E47E000854000020C4070000F80C00083D
:107E900000000000000000000000000000000000E2
:107EA00000000000000000000000000000000000D2
:107EB00000000000000000000000000000000000C2
:107EC0000000FFFF000000000000000000A24A04C4
:107ED000000000000000000001020304060708097A
:047EE000000000009E
:0400000508000145A9
:00000001FF
